:030000000201D02A
:0C01D000787FE4F6D8FD7581620202170A
:1002A8005350454544203A200030313233343536F6
:1002B80037383900535441545553203A20002052BE
:1002C8004947485400204C45465420002050415589
:1002D80053452000303132333435363738394142CE
:0C02E800434445460804020101020408DA
:10043A00013881013BCE0137C3C100C184C183C1E8
:0F044A0002013600092C0A0908070605040302FF
:0704EF00D2AFD2A8D288228F
:0F04AC00758912E4F58CF58AD28CD2A9D2AF22D1
:10036E007E01E4FDE4FCEFC313FF743E2EF8E6D3EA
:10037E00940640034307800E0CBC08EA745F2DF808
:09038E00A6070DBD04DE75210176
:010397002243
:1002F400E55FC4540FF523E55F540FF524E560C4AE
:10030400540FF525E560540FF526E561C4540FF547
:1003140027E561540FF528E562C4540FF529E56219
:0D032400540FF52A85273C85283D0535221C
:0604F6001204EF0204AC49
:10047300E53A600DE4F53A12036EE52160060202E7
:05048300F412025C22EE
:03000B00020006EA
:030006000522329E
:03000300020331C4
:10033100C0E0C0D075D000C000E5396023E522D30C
:1003410094204003752B00743E252BF8A6227522BC
:1003510000052BE52BB4210E752B00753A018006A3
:0D036100753901752200D000D0D0D0E032F7
:10039800C2A58F807F017E001203A9D2A77F057EA8
:0103A8000054
:1003A900D3EF9400EE9400400F7DC77C01DCFEDDA5
:0803B900FAEF1F70EB1E80E853
:0103C1002219
:0A04D400C2A7C2A6120398C2A72215
:0304BB00EB93FFC1
:0A04BE00C2A7D2A6120398C2A7221B
:10045A007F381204D47F0C1204D47F061204D47F8E
:09046A00011204D47F800204D4C5
:10013C002001030201CF300218AF3B1204D47B0420
:10014C0074232BF8E69002DC93FF1204BE0BBB0663
:10015C00EFAF371204D4E4FB9002A81204BB0BBB24
:10016C0008F6E5369002B293FF1204BEAF381204C3
:10017C00D4E4FB9002BC1204BB0BBB08F6A200B388
:10018C004014200411E4FBEB9002C693FF1204BE52
:10019C000BBB06F3802BA200B34014300411E4FB1C
:1001AC00EB9002CD93FF1204BE0BBB06F380122022
:1001BC00000FE4FBEB9002D493FF1204BE0BBB06C2
:0301CC00F3C2017A
:0101CF00220D
:10025C0020B00BE53670037536011536D20120B08F
:10026C000512049A80F820B10CE536B408037536F3
:10027C00070536D20120B10512049A80F820B20489
:10028C00B200D20120B20512049A80F820B304B255
:0C029C0004D20120B30512049A80F8225D
:1003EC00E4F50830002020041DE4F509E50990022D
:1003FC00EC1203C20509E509C3940440EF0508E5B6
:06040C0008C3940840DD66
:0104120022C7
:10041300E4F50830002030041DE4F509E5099002F5
:10042300F01203C20509E509C3940440EF0508E58A
:0604330008C3940840DD3F
:0104390022A0
:10048800E4FFEF9002F093F5900FBF04F5D201025C
:02049800013C25
:10049A0030030920010B1203EC0204137F0112043A
:0204AA00D4225A
:10000E00E53CB40116E53DB4051120000E30030B9E
:10001E00E4F53CF53DF535D201D200E53CB40116D0
:10002E00E53DB4051130000E30030BE4F53CF53D13
:10003E00F535D201C200E53CB40419E53D7015E575
:10004E0036C39408500E30030BE4F53CF53DF53500
:10005E00D2010536E53CB4011AE53DB40915E53685
:10006E00D39400400E30030BE4F53CF53DF535D24C
:10007E00011536E53CB40416E53DB4031120040E1B
:10008E0030030BE4F53CF53DF535D201D204E53CE9
:10009E00B40416E53DB4031130040E30030BE4F541
:1000AE003CF53DF535D201C204E53C7014E53DB496
:1000BE00090F30030CE4F53CF53DF535D2017536EC
:1000CE0008E53C7013E53DB4070E30030BE4F53C38
:1000DE00F53DF535D201F536E53CB40413E53DB4F6
:1000EE00050E20030BE4F53CF53DF535D201D203A8
:1000FE00E53CB40419E53DB40514300311E4F53CB8
:10010E00F53DF535F536D204C200C203D201E53C09
:10011E00B4041AE53DB40415E535B40210E4F53C1B
:0E012E00F53DF535B2027F011204D4D2012254
:0C03C20093F590742C2536F8E6FF7E00C1
:1003CE00D3EF9400EE940040147D727C00ED1D700E
:0D03DE00011CED4C70F7EF1F70E61E80E370
:0103EB0022EF
:0904DE0012045A1204F60204880B
:0C04C80012047312013C12000E02049A90
:0804E7001204DE1204C880FBC0
:1001DC000204E7E493A3F8E493A34003F68001F24E
:1001EC0008DFF48029E493A3F85407240CC8C33324
:1001FC00C4540F4420C8834004F456800146F6DFF3
:10020C00E4800B010204081020408090043AE47E44
:10021C00019360BCA3FF543F30E509541FFEE493E7
:10022C00A360010ECF54C025E060A840B8E493A3AE
:10023C00FAE493A3F8E493A3C8C582C8CAC583CAD9
:10024C00F0A3C8C582C8CAC583CADFE9DEE780BE91
:0104590000A2
:00000001FF
