:0300000002029F5A
:0C029F00787FE4F6D8FD7581690202E664
:10032B000106011E014B015D018801B801EE020BB4
:10033B00024B029302BA0310037003DC04160497FA
:10034B0005260574062006E007B7080C0406020311
:10035B0001090901030206040C083031323334352C
:10036B00363738394142434445465350454544207E
:10037B003A20003938373635343332313000535464
:10038B0041545553203A20002052494748540020ED
:0E039B004C454654200020504155534520004B
:1005C800C1020A300A090807060504030201013DB1
:1005D800810140CE013CC3C101C186C185C104C1AE
:0405E80080013B0053
:0D054900EB93F5907430253BF8E6FF7E0043
:10055600D3EF9400EE940040147D727C00ED1D7084
:0D056600011CED4C70F7EF1F70E61E80E3E6
:010573002265
:0906D40000C37488952EFFDFFEBF
:0106DD0022FA
:10057400C2A58F807F017E00120585D2A77F057EEC
:010584000076
:10058500D3EF9400EE9400400F7DC77C01DCFEDDC7
:08059500FAEF1F70EB1E80E875
:01059D00223B
:0706F000D2AFD2A8D288228C
:0F068E00758902E4F58CF58AD28CD2A9D2AF22FD
:10059E007E01E4FDE4FCEFC313FF74432EF8E6D3B3
:1005AE00940640034307800E0CBC08EA74642DF8D1
:0905BE00A6070DBD04DE75230142
:0105C7002211
:1004A400E564C4540FF525E564540FF526E565C4E9
:1004B400540FF527E565540FF528E566C4540FF588
:1004C40029E566540FF52AE567C4540FF52BE56753
:0D04D400540FF52C852941852A42053A2256
:03000B0002069D4D
:0F069D00C0E005240569E56970020568D0E03208
:0300030002046292
:10046200C0E0C0D075D000C000E53E6023E524D3D3
:1004720094204003752F007443252FF8A624752479
:1004820000052FE52FB4210E752F00753F01800660
:10049200753E01752400300402D203D000D0D0D0C2
:0204A200E03246
:0A06DE00C2A7C2A6120574C2A7222B
:0306BB00EB93FFBF
:0A06BE00C2A7D2A6120574C2A7223B
:10060A007F381206DE7F0C1206DE7F061206DE7FB8
:09061A00011206DE7F800206DEFB
:1001F30030031B300418AF401206DE7B0474252B3A
:10020300F8E690036593FF1206BE0BBB06EF2003CF
:100213000302029EAF3C1206DEE4FB900375120656
:10022300BB0BBB08F6AF3BEF3395E0FEC374089FEF
:10023300FFE49EFE747F2FF58274033EF583E493FF
:10024300FF1206BEAF3D1206DEE4FB9003891206E1
:10025300BB0BBB08F6A201B34014200611E4FBEB71
:1002630090039393FF1206BE0BBB06F3802BA201F0
:10027300B34014300611E4FBEB90039A93FF12068C
:10028300BE0BBB06F3801220010FE4FBEB9003A12E
:0B02930093FF1206BE0BBB06F3C20374
:01029E00223D
:1004E1007B2C7A010522E52270020521300202B23D
:1004F10095AC2DAD2E7E137F8812040DD3E5229F7E
:10050100E5219E4005E4F521F5221206D4EB1B708E
:06051100011AEB4A70CE56
:0105170022C1
:0C0518007F071205247F061205247F07D0
:10052400D20230001DEF25E02429F582E43403F5DE
:1005340083E493F52D740193F52EE4F568F56912BF
:0505440004E1C20222E7
:0B06C8007905AF0112052409B908F7FD
:0106D3002204
:080668001206C87F08120524E8
:0B0670007907AF0112052419B904F747
:01067B00225C
:10000E00E5416401701EE54264057018200115304B
:10001E000512F541F542F53A7F0512052412051831
:10002E00D203D201E5416401701EE54264057018E9
:10003E00300115300512F541F542F53A1205187FDB
:10004E0005120524D203C201E54164047024E54281
:10005E00702030051DF541F542F53A053BE53B6450
:10006E000A60077F08120524D203E53BB40A037524
:10007E003B09E54164017025E5426409701F3005B6
:10008E001CF541F542F53A153BE53BF460077F055B
:10009E00120524D203E53BB4FF03E4F53BE54164CE
:1000AE00047028E5426403702220061F30051C30C0
:1000BE000119F541F542F53AD203D2067F08120531
:1000CE00247F091205247F08120524E5416404707B
:1000DE0028E5426403702230061F30051C300119DA
:1000EE00F541F542F53AD203C2067F091205247F87
:1000FE00081205247F09120524E541702BE54264A0
:10010E00097025300522F541F542F53AE53B6409C3
:10011E006013D2037F081205247F507E001205560D
:10012E007F08120524753B09E5417029E5426407F5
:10013E007023300520F541F542F53AE53B6013D2C8
:10014E00037F051205247F507E001205567F05128F
:10015E000524E4F53BE541B40416E542B40511204F
:10016E00050EE4F541F542F53AD203D2051206C862
:10017E00E54164047021E542B4051C300519E4F52F
:10018E0041F542F53AF53BD206C201C205C2037FE4
:10019E00011206DE120670E5416404701EE542642B
:1001AE00047018E53AB40213E4F541F542F53AB29B
:1001BE00047F011206DED203120668E5417025E5C2
:1001CE0042640D701F30051CF541F542F53AB20040
:1001DE00D2037F011205247F051205247F05120527
:0501EE00241206682246
:1003A90012062330055D30B10E20B00BE53B70031A
:1003B900753B01153BD20330B10820B00512062365
:1003C90080F520B10F30B00CE53BB40903753B084B
:1003D900053BD20320B10830B00512062380F52071
:1003E900B10720B004B201D20320B10820B0051230
:1003F900062380F520B304B206D20320B305120602
:040409002380F82232
:10063C0030011220060FE4FB900355120549E4F536
:05064C00900BBB08F358
:010651002286
:1006520030011230060FE4FB90035D120549E4F508
:05066200900BBB08F342
:010667002270
:10062300300515200212E53F700E20030612063C2A
:090633000206527F011206DE22CC
:10067C00E4FFEF90035D93F5900FBF04F5D20302F6
:02068C0001F378
:1005ED00E53F600DE4F53F12059EE523600312041F
:0D05FD00A41201F312000E1206230203A93E
:0F06AC0012060A1206F012068E1206C802067C0B
:0806E8001206AC1205ED80FBC7
:1002AB000206E8E493A3F8E493A34003F68001F27B
:1002BB0008DFF48029E493A3F85407240CC8C33354
:1002CB00C4540F4420C8834004F456800146F6DF23
:1002DB00E4800B01020408102040809005C8E47EE6
:1002EB00019360BCA3FF543F30E509541FFEE49318
:1002FB00A360010ECF54C025E060A840B8E493A3DF
:10030B00FAE493A3F8E493A3C8C582C8CAC583CA09
:10031B00F0A3C8C582C8CAC583CADFE9DEE780BEC1
:0105EC00000E
:10040D00BC000BBE0029EF8DF084FFADF022E4CCD3
:10041D00F875F008EF2FFFEE33FEEC33FCEE9DEC9C
:10042D00984005FCEE9DFE0FD5F0E9E4CEFD22EDE2
:10043D00F8F5F0EE8420D21CFEADF075F008EF2F2C
:10044D00FFED33FD4007985006D5F0F222C398FD1D
:05045D000FD5F0EA22BA
:00000001FF
